:100000000C946D000C940B010C943B010C946B014F
:100010000C94A2010C948D000C94D9010C94110243
:100020000C948D000C948D000C948D000C948D001C
:100030000C948D000C948D000C948D000C948D000C
:100040000C948D000C948D000C948D000C948D00FC
:100050000C948D000C9449020C948D000C948D002E
:100060000C948D000C948D000C948D000C948D00DC
:100070000C948D000C948D000C948D000C948D00CC
:100080000C948D000C948D000C948D000C948D00BC
:100090000C948D00072C7AA5BA6CC590DA3B936559
:1000A000FC8BBC53F810FD3C5692834DBD879D3AA6
:1000B000B63DCBC9BF5BBE73DA0FC93F05A84CCDB7
:1000C000B2D44EB93836A9020C50B9918688083C92
:1000D000A6AAAA2ABE000000803F11241FBECFEFAF
:1000E000D0E1DEBFCDBF13E0A0E0B1E0ECEFF3E480
:1000F00000E00BBF02C007900D92A63AB107D9F7F6
:100100001BBE13E0A6EAB3E001C01D92AA3DB107F1
:10011000E1F70E94430B0C94FC210C9400009B011E
:10012000AC0184E0220F331F441F551F8A95D1F77D
:1001300060E074E284EF90E00E948821215030401A
:100140003093C5002093C40088E18093C10086E00D
:100150008093C2000895982F8091C00085FFFCCF46
:100160009093C6000895FC01009741F40895809192
:10017000C00085FFFCCF31969093C60090819923F3
:10018000B1F70895F89450985198529853986D98F3
:100190006E98E9E6F0E080818D7F808380818160C8
:1001A00080838081877F8083808184608083808159
:1001B0008F7D808380818061808380818F77808341
:1001C000808180648083EAE6F0E08081877F80839D
:1001D00080818460808380818F7D80838081806145
:1001E00080836C9AE89AE99AEA9AEB9AED9AEE9AE9
:1001F000E1ECF0E080818068808378940895409AF3
:100200003898419A3998429A3A98439A3B98459A35
:100210003D9810B808951F920F920FB60F921124B7
:100220002F933F934F935F938F939F9329B189B1FE
:1002300030E02170307090E09695879581709070D5
:100240004091A8035091A9032817390719F4415088
:10025000504002C04F5F5F4F5093A9034093A803E3
:100260009F918F915F914F913F912F910F900FBE72
:100270000F901F9018951F920F920FB60F92112496
:100280002F933F934F935F938F939F9329B189B19E
:1002900030E02170307090E0969587958170907075
:1002A0004091A8035091A9032817390719F44F5F0B
:1002B0005F4F02C0415050405093A9034093A803A0
:1002C0009F918F915F914F913F912F910F900FBE12
:1002D0000F901F9018951F920F920FB60F92112436
:1002E0002F933F934F935F938F939F9329B189B13E
:1002F00030E036952795369527952170307090E03F
:1003000043E0969587954A95E1F78170907040910A
:10031000AA035091AB032817390719F44F5F5F4FB9
:1003200002C0415050405093AB034093AA039F91A9
:100330008F915F914F913F912F910F900FBE0F9032
:100340001F9018951F920F920FB60F9211242F93A2
:100350003F934F935F938F939F9329B189B130E07F
:1003600036952795369527952170307090E043E0BB
:10037000969587954A95E1F7817090704091AA0310
:100380005091AB032817390719F44150504002C06F
:100390004F5F5F4F5093AB034093AA039F918F91A0
:1003A0005F914F913F912F910F900FBE0F901F9033
:1003B00018951F920F920FB60F9211242F933F930F
:1003C0004F935F938F939F932CB18CB130E055E0A6
:1003D000369527955A95E1F72170307090E046E008
:1003E000969587954A95E1F7817090704091AC039E
:1003F0005091AD032817390719F44150504002C0FD
:100400004F5F5F4F5093AD034093AC039F918F912B
:100410005F914F913F912F910F900FBE0F901F90C2
:1004200018951F920F920FB60F9211242F933F939E
:100430004F935F938F939F932CB18CB130E055E035
:10044000369527955A95E1F72170307090E046E097
:10045000969587954A95E1F7817090704091AC032D
:100460005091AD032817390719F44F5F5F4F02C051
:10047000415050405093AD034093AC039F918F91F6
:100480005F914F913F912F910F900FBE0F901F9052
:1004900018951F920F920FB60F9211242F933F932E
:1004A0004F935F936F937F938F939F93AF93BF937C
:1004B0002091C6002093C703822F8295869587706E
:1004C00021F41092BF031092BE03682F70E0809158
:1004D000BE039091BF036817790709F043C02F71DD
:1004E00030E040E050E0CB01880F991F880F991F42
:1004F000860F971F04C0220F331F441F551F8A9574
:10050000D2F78091B6039091B703A091B803B09150
:10051000B903282B392B4A2B5B2B2093B60330933E
:10052000B7034093B8035093B903CB01019690935E
:10053000BF038093BE030797F1F42093BA0330936F
:10054000BB034093BC035093BD031092BF031092B2
:10055000BE031092B6031092B7031092B803109224
:10056000B90309C08091C0039091C1030196909393
:10057000C1038093C003BF91AF919F918F917F91F1
:100580006F915F914F913F912F910F900FBE0F9000
:100590001F901895892B11F417980895179A0895AC
:1005A000892B11F416980895169A0895892B11F441
:1005B00015980895159A08958091C2038F5F8093CE
:1005C000C2038150893C10F074980895749A08957C
:1005D0002F923F924F925F926F927F928F929F9253
:1005E000AF92BF92CF92DF92EF92FF920F931F9341
:1005F000DF93CF9300D0CDB7DEB73090AE0320901D
:10060000AF036091B00369838091B1038A836091E5
:10061000A8037091A9036155714E882777FD8095D5
:10062000982F0E94521F9B01AC010E944C1E2BED83
:100630003FE049E450E40E94882020E030E44CE1AF
:1006400056E40E94B71E7B018C014090AC03509091
:10065000AD030E94B41E5B016C016091AA0370910E
:10066000AB036E587E4F882777FD8095982F0E94A8
:10067000521F9B01AC010E944C1E2BED3FE049E450
:1006800050E40E94882020E030E044EB54E40E94D3
:10069000B71E9B01AC01C801B7010E944C1E2BED97
:1006A0003FE049E450E40E944B1E0E94B41E7B01CF
:1006B0008C01C601B50120E030E048E452E40E941C
:1006C00088205B016C01C801B70120E030E044E301
:1006D00052E40E9488209B01AC01C601B5010E9432
:1006E0004C1E3B014C016093D4037093D50380935F
:1006F000D6039093D703C090CB01D090CC0191E06A
:10070000C916D10489F4C401B30120E030E048ECFB
:1007100053E40E948820A40193010E94882020E0D5
:1007200030E44CE155EC33C0E8E7F3E04E0E5F1ED9
:10073000B201882777FD8095982F0E94521F23E3EE
:1007400033E34BEC51E40E94882020E030E04AEF94
:1007500054E40E94B71E7B018C01F2E0CF16D10455
:10076000E9F420E030E04CE852E40E944B1E7B01AB
:100770008C0120E030E048EC53E40E948820A8017E
:1007800097010E94882020E030E048EC54EC0E9461
:10079000B71E20E030E048EC53E441C163E0C616E8
:1007A000D104F9F480E090E0A0E7B2E48093C303C1
:1007B0009093C403A093C503B093C603C401B301CF
:1007C000A40193010E9488209B01AC0160E078E6BF
:1007D0008DE895E40E944B1E20E030E041E655E4B0
:1007E0004CC184E0C816D10409F069C0C401B3014A
:1007F00020E030E040EA51EC0E94842088230CF491
:1008000059C0C401B30120E030E040EA51E40E9445
:10081000B01E18160CF44EC0C801B70120E030E03D
:1008200048E452E40E94842088230CF443C0C801A9
:10083000B70120E030E044EB52E40E94B01E1816ED
:10084000CCF1C801B70120E030E04CE852E40E944E
:100850004B1E7B018C01C401B301A40193010E94D2
:1008600088205B016C01C801B701A80197010E94B3
:1008700088209B01AC01C601B5010E944C1E0E945C
:10088000EF202BED3FE049E450E40E94882020E077
:1008900030E040EA51E40E94B71E0E94B41E20E0FE
:1008A00030E040E251E40E94882020E030E04CE853
:1008B00052E43EC080E090E0A0E7B2E448C095E09A
:1008C000C916D10409F06EC0C801B70120E030E0BC
:1008D00048E452E40E9484208823ACF1C801B701A7
:1008E00020E030E044EB52E40E94B01E18165CF1A8
:1008F000C801B70120E030E04CE852E40E944B1EF2
:100900002BED3FE049E450E40E94882020E030E0F5
:1009100040EA51E40E94B71E0E94B41E20E030E07D
:1009200040E251E40E94882020E030E040E252E4BE
:100930000E944C1E6093C3037093C4038093C5034D
:100940009093C6030CC080E090E0A0EFB1E48093E8
:10095000C3039093C403A093C503B093C603A090B0
:10096000C303B090C403C090C503D090C603C401B4
:10097000B301A40193010E9488209B01AC0160E0B7
:1009800078E68DE895E40E944B1E7B018C01C60140
:10099000B501A60195010E9488209B01AC01C80108
:1009A000B7016BC0E6E0CE16D10409F08FC0C801D4
:1009B000B70120E030E04CE852E40E944B1E7B017E
:1009C0008C0120E030E048EC53E40E948820A8012C
:1009D00097010E94882020E030E048EC54EC0E940F
:1009E000B71E20E030E048EC53E40E944C1E7B012F
:1009F0008C01C401B30120E030E048EC53E40E94D4
:100A00008820A40193010E94882020E030E44CE17A
:100A100055EC0E94B71E9B01AC01C801B7010E94B2
:100A20004C1E0E94EF2020E030E040E752E40E949C
:100A30004C1E7B018C016093C3037093C4038093AD
:100A4000C5039093C603C401B301A40193010E949E
:100A500088209B01AC0160E078E68DE895E40E9477
:100A60004B1E5B016C01C801B701A80197010E94F0
:100A700088209B01AC01C601B5010E944B1E20E0FD
:100A800030EA4CE855E40E94B71E0E943D1E7B01EF
:100A90008C012BED3FE049E450E40E9484201816BD
:100AA0005CF40F2EFBEDEF2EFFE0FF2EF9E40F2F8D
:100AB000F0E41F2FF02D14C0C801B70120E030E092
:100AC00040E050E00E94B01E882354F40F2EF0E066
:100AD000EF2EF0E0FF2EF0E00F2FF0E01F2FF02DB3
:100AE000C801B70120E030E040E05FE30E948820C9
:100AF0002BED3FE049E450E40E94B71E20E030E0D7
:100B000044E058E40E94882020E834E340EB57E4B6
:100B10000E944C1E20E038ED4AEA56E40E944B1E2B
:100B20000E941F1F9B01AC01DC01CB010197A109B1
:100B3000B10980509041A240B04040F0232D322DA9
:100B400049815A81C901DA019C01AD01B901CA018B
:100B50000F900F90CF91DF911F910F91FF90EF9029
:100B6000DF90CF90BF90AF909F908F907F906F90CD
:100B70005F904F903F902F900895E1E6F0E080E87D
:100B8000808310828FEF81B9569855985E9A5D9A4E
:100B900081E08093D80088EE0E9411138091E200DA
:100BA0008093E5000895AF92BF92CF92DF92EF92CB
:100BB000FF920F931F93DF93CF93CDB7DEB7C85E3D
:100BC000D3400FB6F894DEBF0FBECDBF8C01DC0161
:100BD0001B968C917E010894E11CF11C8823E9F19D
:100BE0002091F800EDB7FEB73C970FB6F894FEBF22
:100BF0000FBEEDBF3196ADB7BEB71296FC92EE9226
:100C0000119780E091E09383828324831582D80139
:100C100012962D913D914D915C91159726833783C6
:100C20004087518716968C91828713860E949C1B61
:100C3000F7018DB79EB70C960FB6F8949EBF0FBE06
:100C40008DBF07C08091C00085FFFCCF3196909387
:100C5000C60090819923B1F73CC02091F9003091F2
:100C6000F800ADB7BEB71C970FB6F894BEBF0FBE65
:100C7000ADBFEDB7FEB731961296FC92EE9211978A
:100C800088E291E0938382832483158236831782DE
:100C9000D80112968D919C91139791878087169613
:100CA0008C91828713860E949C1BF7018DB79EB79B
:100CB0000C960FB6F8949EBF0FBE8DBF07C08091F3
:100CC000C00085FFFCCF31969093C6009081992398
:100CD000B1F7D8011A968C91882351F4FF246E0144
:100CE0000894C11CD11CB1E6AB2EB1E0BB2E48C0AC
:100CF0008E010F5F1F4FC80168E571E00E94951BD0
:100D0000F80107C08091C00085FFFCCF3196909319
:100D1000C60090819923B1F76FC000D000D000D0F9
:100D20004DB75EB74F5F5F4FEDB7FEB7D282C1825E
:100D3000DA011396BC92AE921297F801A781B085A2
:100D4000A20FB31F8C91DA0114968C931497159609
:100D50001C920E949C1BF6018DB79EB706960FB69B
:100D6000F8949EBF0FBE8DBF07C08091C00085FF65
:100D7000FCCF31969093C60090819923B1F7F394FC
:100D80002F2D30E0D80116968C9190E0019728170E
:100D900039071CF200D000D000D0ADB7BEB7119615
:100DA000EDB7FEB7D282C18287E691E013969C939D
:100DB0008E931297F80187819085820F931FFC0113
:100DC000808114968C93149715961C920E949C1BFC
:100DD000F6018DB79EB706960FB6F8949EBF0FBE6C
:100DE0008DBF07C08091C00085FFFCCF31969093E6
:100DF000C60090819923B1F7C851DC4F0FB6F89423
:100E0000DEBF0FBECDBFCF91DF911F910F91FF903D
:100E1000EF90DF90CF90BF90AF900895FF920F9327
:100E20001F93DF93CF93CDB7DEB728970FB6F89413
:100E3000DEBF0FBECDBF89012BE229838A839B834E
:100E40006C834D835E831F821886CE010196F80164
:100E50009087878381E096E09383828388E086830E
:100E600081E081838091A6039091A703892B81F073
:100E7000EEE6F1E007C08091C00085FFFCCF31961F
:100E80009093C60090819923B1F7C8010E94D305C1
:100E9000C8010E94EC0D8823D9F7C8010E94590DA2
:100EA000F82EC8010E94590D8130B9F3F2E0FF1607
:100EB00011F40E94B107CE010196F8019087878353
:100EC000FC01CE0109961192E817F907E1F784E0D9
:100ED000F8018183C8010E94EC0D8823D9F7C8016D
:100EE0000E94590D8130D9F3823011F40E94B1076C
:100EF0008091A6039091A703892B81F0EBE7F1E0A5
:100F000007C08091C00085FFFCCF31969093C6004A
:100F100090819923B1F7C8010E94D30528960FB696
:100F2000F894DEBF0FBECDBFCF91DF911F910F911F
:100F3000FF900895DF93CF9300D0CDB7DEB79A83AB
:100F4000898380E490E660E070E040E850E09E0134
:100F50002F5F3F4F0E940E070F900F90CF91DF91B0
:100F6000089580E490E660E070E04FE050E028EC07
:100F700033E00E940E0780E490E660E070E040E01D
:100F800050E028EC33E00E940E07E7E8F1E007C0EC
:100F90008091C00085FFFCCF31969093C600908170
:100FA0009923B1F729E088E190E00FB6F894A8956D
:100FB000809360000FBE20936000FFCFFF920F93DD
:100FC0001F93DF93CF93CDB7DEB72A970FB6F89470
:100FD000DEBF0FBECDBF8C0180E48B8381E48C83A8
:100FE00080E68D831E821F82188619861A86CE019E
:100FF0000396D80118969C938E93179781E096E0FC
:1010000013969C938E93129788E016968C9316975E
:1010100081E011968C938091A6039091A703892B70
:1010200081F0EEE6F1E007C08091C00085FFFCCFC3
:1010300031969093C60090819923B1F7C8010E9420
:10104000D305C8010E94EC0D8823D9F7C8010E947E
:10105000590DF82EC8010E94590D8130B9F3B2E044
:10106000FB1611F40E94B107CE010396F801908798
:101070008783FC01CE010B961192E817F907E1F77F
:1010800084E0D80111968C93C8010E94EC0D88234E
:10109000D9F7C8010E94590D8130D9F3823011F47B
:1010A0000E94B1078091A6039091A703892B81F03C
:1010B000EBE7F1E007C08091C00085FFFCCF3196DF
:1010C0009093C60090819923B1F7C8010E94D3057F
:1010D000D8011796ED91FC911897848189831A8223
:1010E000298130E013E0369527951A95E1F72170B4
:1010F0003070C9012A960FB6F894DEBF0FBECDBF7F
:10110000CF91DF911F910F91FF9008958F929F9241
:10111000AF92BF92CF92DF92EF92FF920F931F9305
:10112000CF93DF9380E490E660E040E050E028EC6D
:1011300033E00E940E0788EC93E00E94DE07892BC3
:1011400011F00E947F09109285001092840001E046
:1011500010E036E0832E912C20E9E22E21E0F22EE1
:1011600093E0A92EB12C84E0C82ED12C809184006C
:1011700090918500815D9740D0F01092850010928B
:1011800084001798169815980130110511F4179AD4
:101190000CC00230110511F4169A07C00330110576
:1011A00019F001E010E003C0159A0F5F1F4F309B4C
:1011B00003C0C0E0D0E01CC0E7E9F1E007C08091C7
:1011C000C00085FFFCCF31969093C6009081992393
:1011D000B1F79092CC018092CB0112B888EE93E0E7
:1011E000F7013197F1F70197D9F7179AC1E0D0E0ED
:1011F00033991CC0EAE9F1E007C08091C00085FF87
:10120000FCCF31969093C60090819923B1F7B092AC
:10121000CC01A092CB0112B888EE93E0F701319790
:10122000F1F70197D9F7169AC1E0D0E032991CC0C6
:10123000EDE9F1E007C08091C00085FFFCCF319659
:101240009093C60090819923B1F7D092CC01C092BF
:10125000CB0112B888EE93E0F7013197F1F70197CF
:10126000D9F7159AC1E0D0E0319B02C00E94B107C6
:10127000CD2B09F47BCF0E94E8026093AE037093FC
:10128000AF038093B0039093B10380E490E660E0F5
:1012900040E850E028EC33E00E940E0788E893E134
:1012A00020E931E0F9013197F1F70197D9F780E4AE
:1012B00090E660E046E050E028EC33E00E940E0744
:1012C00088E893E120E931E0F9013197F1F70197DE
:1012D000D9F780E490E660E04FE051E028EC33E09D
:1012E0000E940E07DF91CF911F910F91FF90EF9019
:1012F000DF90CF90BF90AF909F908F900895CF9345
:10130000DF9380E090E00E94CA0280E090E00E94BB
:10131000D00280E090E00E94D602C0E9D1E02AC06D
:1013200088EE93E0FE013197F1F70197D9F781E05C
:1013300090E00E94CA0281E090E00E94D00281E029
:1013400090E00E94D60288EE93E0FE013197F1F71B
:101350000197D9F780E090E00E94CA0280E090E017
:101360000E94D00280E090E00E94D602319B02C031
:101370000E94B1073599D4CF80E090E00E94CA0264
:1013800080E490E660E040E850E028EC33E00E9422
:101390000E0788E893E120E931E0F9013197F1F790
:1013A0000197D9F70E948608DF91CF910895FF92A7
:1013B0000F931F93DF93CF93CDB7DEB728970FB668
:1013C000F894DEBF0FBECDBF73E279838A839B831F
:1013D0006C832D83BB27A52F942F832F8E83CA0167
:1013E000AA27BB278F83252F3327442755272887F4
:1013F000CE010196F8019087878381E096E0938380
:10140000828388E0868381E081838091A603909126
:10141000A703892B81F0EEE6F1E007C08091C000C0
:1014200085FFFCCF31969093C60090819923B1F748
:10143000C8010E94D305C8010E94EC0D8823D9F78A
:10144000C8010E94590DF82EC8010E94590D813023
:10145000B9F3F2E0FF1611F40E94B107CE01019634
:10146000F80190878783FC01CE0109961192E81755
:10147000F907E1F784E0F8018183C8010E94EC0DCF
:101480008823D9F7C8010E94590D8130D9F38230E1
:1014900011F40E94B1078091A6039091A703892BB4
:1014A00081F0EBE7F1E007C08091C00085FFFCCF41
:1014B00031969093C60090819923B1F7C8010E949C
:1014C000D30528960FB6F894DEBF0FBECDBFCF91DF
:1014D000DF911F910F91FF900895FF920F931F933B
:1014E000DF93CF93CDB7DEB728970FB6F894DEBF62
:1014F0000FBECDBF89012FE229838A839B836C8332
:101500004D831E821F821886CE010196F8019087B6
:10151000878381E096E09383828388E0868381E0FD
:1015200081838091A6039091A703892B81F0EEE639
:10153000F1E007C08091C00085FFFCCF3196909309
:10154000C60090819923B1F7C8010E94D305C80154
:101550000E94EC0D8823D9F7C8010E94590DF82E7E
:10156000C8010E94590D8130B9F3F2E0FF1611F461
:101570000E94B107CE010196F80190878783FC0194
:10158000CE0109961192E817F907E1F784E0F80116
:101590008183C8010E94EC0D8823D9F7C8010E94FD
:1015A000590D8130D9F3823011F40E94B107809136
:1015B000A6039091A703892B81F0EBE7F1E007C028
:1015C0008091C00085FFFCCF31969093C60090813A
:1015D0009923B1F7C8010E94D30528960FB6F89455
:1015E000DEBF0FBECDBFCF91DF911F910F91FF9056
:1015F00008950F931F93DF93CF93CDB7DEB728974E
:101600000FB6F894DEBF0FBECDBF8C0121E0298359
:101610001A821B821C821D821E821F821886CE01A6
:101620000196F80190878783138212822683218393
:10163000C8010E94EC0D8823D9F7C8010E94590DFA
:101640008130D9F38091A6039091A703892B81F073
:10165000E0EAF1E007C08091C00085FFFCCF319641
:101660009093C60090819923B1F7C8010E94D305D9
:1016700028960FB6F894DEBF0FBECDBFCF91DF9195
:101680001F910F910895AF92BF92CF92DF92FF9278
:101690000F931F93DF93CF93CDB7DEB728970FB685
:1016A000F894DEBF0FBECDBF60E071EE80E090E049
:1016B0000E948F000E94C2000E94BD0588E893E14D
:1016C00020E931E0F9013197F1F70197D9F710924C
:1016D000A9031092A8031092AB031092AA031092D0
:1016E000AD031092AC0380918100846080938100EF
:1016F000809181008D7F8093810080918100816045
:101700008093810088EC93E00E94F90A80E490E6DF
:1017100060E043E050E028EC33E00E940E0780E6F2
:1017200090E660E04FEF28EC33E00E946D0A8BEF0B
:1017300090E661E044E650E028EC33E00E940E07BA
:101740008BEF90E662E04AE050E028EC33E00E9444
:101750000E07179A8BEF90E663E048EC50E028EC18
:1017600033E00E940E0780E194E661E048EE53E02A
:1017700028EC33E00E940E0780E194E662E044EF3B
:1017800051E028EC33E00E940E078DE790E661E01F
:1017900020E838E341E050E008EC13E00E94D7096C
:1017A0008DE790E662E020E23FEB42E050E00E94ED
:1017B000D709169A88E893E120E931E0F9013197D9
:1017C000F1F70197D9F78FE790E660E028EA31E674
:1017D00040E050E008EC13E00E94D70981E890E671
:1017E00060E028E833E140E050E00E94D70983E858
:1017F00090E660E020E43DE043E050E00E94D7093D
:1018000084E890E660E020E43DE043E050E00E94A0
:10181000D70985E690E660E020E43DE043E050E053
:101820000E94D70982E690E2A0E0B0E08093B20384
:101830009093B303A093B403B093B50382E690E210
:1018400060E020E93FE541E050E00E94D709159AA9
:1018500088E893E120E931E0F9013197F1F7019748
:10186000D9F717981698159880E197E220E931E0AA
:10187000F9013197F1F70197D9F780E490E660E03C
:1018800040E850E028EC33E00E940E0788E893E13E
:1018900020E931E0F9013197F1F70197D9F780E4B8
:1018A00090E660E046E050E028EC33E00E940E074E
:1018B00088E893E120E931E0F9013197F1F70197E8
:1018C000D9F780E490E660E04FE051E028EC33E0A7
:1018D0000E940E076E010894C11CD11C9AEBA92E20
:1018E00091E0B92E8091C2038F5F8093C203815033
:1018F000893C10F0749801C0749A1092A70310925A
:10190000A6032091BA033091BB034091BC035091D0
:10191000BD038091AE039091AF03A091B003B0914D
:10192000B10382179307A407B507E1F02093AE0334
:101930003093AF034093B0035093B103DA01C90170
:1019400081589843A140B0408F599648A140B0407B
:1019500048F48091B2039091B30360E008EC13E087
:101960000E94D7090091A8031091A9030155114EB7
:101970006091AA037091AB036E587E4F4091AC0307
:101980005091AD0348585C4F242F452F550F550BF0
:10199000F62E502F012F110F110B8DB79EB74497C4
:1019A0000FB6F8949EBF0FBE8DBFEDB7FEB7319650
:1019B000ADB7BEB71296DC92CE921197B382A282D7
:1019C000822F8695869586958483158230E02770D0
:1019D0003070220F331F220F331F842F8695869578
:1019E0008370822B806286831782262F229526950C
:1019F00027702064842F90E08370907033E0880F0C
:101A0000991F3A95E1F7282B20871186F694F694D2
:101A1000F694B0E6FB2AF2861386852F881F882766
:101A2000881F8068672F770F770B70E06F7070707A
:101A3000660F771F862B84871586852F869586955A
:101A40008F71806A86871786A52FB0E0A370B0706B
:101A500013E0AA0FBB1F1A95E1F7802F8695869594
:101A6000869587708A2B806C808B118A802F90E0FE
:101A700087709070880F991F880F991F806E828BD6
:101A8000138A0E949C1BF6018DB79EB744960FB631
:101A9000F8949EBF0FBE8DBF07C08091C00085FF28
:101AA000FCCF31969093C6009081992309F41ACF08
:101AB000F4CF1F93CF93DF93EC018985882309F43A
:101AC00086C08F3109F483C08F3F09F480C08881BC
:101AD0008295807F8093ED000E944513182F8032FD
:101AE00071F0813218F4882341F069C0803409F420
:101AF0005CC0803A09F063C002C081E069C0809197
:101B0000EF008F708E838F8198850E94581380918B
:101B1000F00090E0847090709595879595958795E5
:101B20008A878091EF00FE01329684FF2BC081E00E
:101B30008B878091F3008695869586958383909117
:101B4000F2008091F3008295880F807E969596959D
:101B50009695890F82839091F1008091F200829591
:101B6000880F807E969596959695890F81839091A2
:101B7000F0008091F1008295880F807E9695969571
:101B8000969511C01B868091F3008295869587708B
:101B900081839091F2008091F300880F880F880F65
:101BA000929596959770890F8A8319878091EF0097
:101BB0008F738093EF001092EE0080E009C01987C8
:101BC0008091EF008F738093EF001092EE0082E01F
:101BD000DF91CF911F9108950F931F93DF93CF93C0
:101BE00000D000D0CDB7DEB78C01DC0111968C910E
:101BF00011978C30A9F419968C911997803669F455
:101C00008C918295807F8093ED008091EF008F739F
:101C10008093EF001092EE001C92F801118628C10B
:101C20000E942E13982F8F3F09F4EEC480E6D8014E
:101C300019968C9319979C939295907F9093ED00B1
:101C4000EEEEF0E01192E83FF105E1F7F801818155
:101C5000863009F4DCC1873090F4833009F40AC17E
:101C6000843030F4813011F1823009F0C9C48CC065
:101C7000843009F451C1853009F0C2C488C189306B
:101C800009F430C38A3038F4873009F407C2883049
:101C900009F0B6C498C28A3021F08B3009F0B0C484
:101CA0000BC4D80116964C9190E0BCC3F801838513
:101CB0003296882391F13281932F92959695977061
:101CC0008381880F880F880F980F9093F3002181EC
:101CD000822F829586958770330F330F330F830FD2
:101CE0008093F200D80112969C91220F220F220FAE
:101CF000892F829586958770280F2093F100990F80
:101D0000990F990F9093F0008091EF00806180937C
:101D1000EF00F801268190E022C0D80112962C91A4
:101D200081818295880F807E922F969596959695C3
:101D3000890F8093F3002295220F207E2093F200DA
:101D40008091EF008F7EE3CFD8011796ED91FC9143
:101D50001897E90FF11D80818093FA009F5F921719
:101D600098F3F8018285882321F08091F000846047
:101D700003C08091F0008B7F8093F0008091EF0092
:101D8000282B2093EF006AC0D8011B968C91F80194
:101D90003296882391F13281932F92959695977080
:101DA0008381880F880F880F980F9093F30021810B
:101DB000822F829586958770330F330F330F830FF1
:101DC0008093F200F8019281220F220F220F892FB7
:101DD000829586958770280F2093F100990F990FAF
:101DE000990F9093F0008091EF0080618093EF0055
:101DF000D80116962C9190E022C0D80112962C9111
:101E000081818295880F807E922F969596959695E2
:101E1000890F8093F3002295220F207E2093F200F9
:101E20008091EF008F7EE2CFD8011796ED91FC9163
:101E30001897E90FF11D80818093FA009F5F921738
:101E400098F3F80112868091F0008B7F8093F00068
:101E50008091EF009681892B8093EF008091EF00B5
:101E60008F738093EF008091EF0080648093EF0088
:101E700080E0CEC3D8011B968C91F801329688235E
:101E800061F13281932F9295969597708381880F97
:101E9000880F880F980F9093F3002181822F8295ED
:101EA00086958770330F330F330F830F8093F200C3
:101EB000F8019281220F220F220F892F8295869599
:101EC0008770280F2093F100990F990F990F909325
:101ED000F0008091EF00806116C0D80112962C911D
:101EE00081818295880F807E922F96959695969502
:101EF000890F8093F3002295220F207E2093F20019
:101F00008091EF008F7E8093EF0081E0F80182875F
:101F10008091F00084609ACF19821A821B821C8201
:101F2000FE0131963281932F929596959770838119
:101F3000880F880F880F980F9093F7002181822FC8
:101F4000829586958770330F330F330F830F8093FD
:101F5000F6009981220F220F220F892F82958695F4
:101F60008770280F2093F500990F990F990F909380
:101F7000F4008091EF00D80116969C91892B8093F4
:101F8000EF008091F4008B7F8093F40091C219825E
:101F90001A821B821C82FE0131963281932F929508
:101FA000969597708381880F880F880F980F90936C
:101FB000F7002181822F829586958770330F330F2A
:101FC000330F830F8093F6009981220F220F220F87
:101FD000892F829586958770280F2093F500990F99
:101FE000990F990F9093F4008091EF00F80196817A
:101FF000892B8093EF0012868091F4008460809397
:10200000F4008091F0008B7F8093F00051C2198220
:102010001A821B821C82FE0131963281932F929587
:10202000969597708381880F880F880F980F9093EB
:10203000F7002181822F829586958770330F330FA9
:10204000330F830F8093F6009981220F220F220F06
:10205000892F829586958770280F2093F500990F18
:10206000990F990F9093F4008091EF00D801169684
:102070009C911697892B8093EF0081E01A968C93A0
:102080008091F40084608093F4008091F00084607B
:102090008093F0008091EF008F7D08C2F801838566
:1020A0003296882369F13281932F92959695977095
:1020B0008381880F880F880F980F9093F3002181F8
:1020C000822F829586958770330F330F330F830FDE
:1020D0008093F200D80112969C91220F220F220FBA
:1020E000892F829586958770280F2093F100990F8C
:1020F000990F990F9093F0008091EF00806116C0C6
:10210000D80112962C9181818295880F807E922F22
:10211000969596959695890F8093F3002295220FB8
:10212000207E2093F2008091EF008F7E8093EF005D
:102130008FEF9FEFAFEFBFEF89839A83AB83BC83B1
:10214000FE0131963281932F9295969597708381F7
:10215000880F880F880F980F9093F7002181822FA6
:10216000829586958770330F330F330F830F8093DB
:10217000F6009981220F220F220F892F82958695D2
:102180008770280F2093F500990F990F990F90935E
:10219000F4008091EF00F8019681892B8093EF0085
:1021A0008091F4008B7F8093F4008091F400816033
:1021B0008093F4008091EF008F738093EF00809103
:1021C000EF00806853CED8011B968C91F8013296AF
:1021D000882361F13281932F929596959770838130
:1021E000880F880F880F980F9093F3002181822F1A
:1021F000829586958770330F330F330F830F80934B
:10220000F200F8019281220F220F220F892F82956E
:1022100086958770280F2093F100990F990F990FD9
:102220009093F0008091EF00806116C0D801129663
:102230002C9181818295880F807E922F969596951C
:102240009695890F8093F3002295220F207E20938C
:10225000F2008091EF008F7E8093EF008FEF9FEF71
:10226000AFEFBFEF89839A83AB83BC83FE013196C6
:102270003281932F9295969597708381880F880F5E
:10228000880F980F9093F7002181822F8295869571
:102290008770330F330F330F830F8093F6009981CC
:1022A000220F220F220F892F829586958770280F83
:1022B0002093F500990F990F990F9093F400809156
:1022C000EF00F8019681892B8093EF0012868091B0
:1022D000F40084608093F4008091F0008B7F809301
:1022E000F00063CFD8011B968C91F80132968823B9
:1022F00061F13281932F9295969597708381880F23
:10230000880F880F980F9093F3002181822F829578
:1023100086958770330F330F330F830F8093F2004E
:10232000F8019281220F220F220F892F8295869524
:102330008770280F2093F100990F990F990F9093B0
:10234000F0008091EF00806116C0D80112962C91A8
:1023500081818295880F807E922F9695969596958D
:10236000890F8093F3002295220F207E2093F200A4
:102370008091EF008F7E8093EF008FEF9FEFAFEFA4
:10238000BFEF89839A83AB83BC83FE013196328190
:10239000932F9295969597708381880F880F880F59
:1023A000980F9093F7002181822F829586958770F0
:1023B000330F330F330F830F8093F6009981220F71
:1023C000220F220F892F829586958770280F2093E0
:1023D000F500990F990F990F9093F4008091EF00F9
:1023E000F8019681892B8093EF0081E082878091AC
:1023F000F40084608093F4008091F0008460809306
:10240000F0008091EF008F7D8093EF00CECED80159
:102410001796ED91FC911897E90FF11D808180933B
:10242000FA009F5F941798F319821A821B821C820C
:10243000FE0131963281932F929596959770838104
:10244000880F880F880F980F9093F7002181822FB3
:10245000829586958770330F330F330F830F8093E8
:10246000F6009981220F220F220F892F82958695DF
:102470008770280F2093F500990F990F990F90936B
:10248000F4008091EF00482B4093EF0081E0F801C9
:1024900082878091F40084608093F4008091F00042
:1024A00084608093F0008091EF0080628093EF0061
:1024B0008091F4008E7F7CCED8011B968C91F80120
:1024C0003296882391F13281932F92959695977049
:1024D0008381880F880F880F980F9093F3002181D4
:1024E000822F829586958770330F330F330F830FBA
:1024F0008093F200F8019281220F220F220F892F80
:10250000829586958770280F2093F100990F990F77
:10251000990F9093F0008091EF0080618093EF001D
:10252000D80116964C9190E022C0D80112962C91B9
:1025300081818295880F807E922F969596959695AB
:10254000890F8093F3002295220F207E2093F200C2
:102550008091EF008F7EE2CFD8011796ED91FC912C
:102560001897E90FF11D80818093FA009F5F9417FF
:1025700098F38FEF9FEFAFEFBFEF89839A83AB8321
:10258000BC83FE0131963281932F92959695977078
:102590008381880F880F880F980F9093F70021810F
:1025A000822F829586958770330F330F330F830FF9
:1025B0008093F6009981220F220F220F892F829596
:1025C00086958770280F2093F500990F990F990F22
:1025D0009093F4008091EF00482B4093EF0081E04E
:1025E000F80182878091F40084608093F4008091E8
:1025F000F00084608093F0008091EF00806204CF4F
:10260000D80119961C9234CC8FE1F80181878FEFA5
:102610000F900F900F900F90CF91DF911F910F911E
:1026200008950E94DE14882341F00E941E138091B9
:10263000D80082608093D80081E0089590E0892FCF
:102640008295807F8093ED00EEEEF0E01192E83FFE
:10265000F105E1F79F5F9F3091F708952091ED001C
:1026600090E0892F8295807F8093ED008091EF002C
:10267000807C19F42093ED0006C09F5F9F3089F79E
:102680002093ED009FEF892F08958091EF00807CCB
:1026900011F48FEF08959091EE00892F807E8032A3
:1026A00031F0803421F0803A11F0892F8F71089534
:1026B000AC0120E006C08091FA00E40FF51F808392
:1026C0002F5F8091EF00E22FF0E090E08F7090702C
:1026D000E817F90784F308959F92AF92BF92CF92C3
:1026E000DF92EF92FF920F931F93882361F4DD2412
:1026F000D394B3E0A8E062E072E050E011E040E083
:10270000FF24F39454C08091E2008E7719F4DD2405
:10271000D39409C08091E20090E08E7790709595F7
:102720008795D82ED3948091E3008E7011F4B1E098
:1027300009C08091E30090E08E7090709595879528
:10274000B82FBF5F8091E4008E70833010F462E098
:1027500009C08091E40090E08E7090709595879507
:10276000682F6F5F8091E4008077813110F472E010
:102770000CC08091E40090E08077907024E0959503
:1027800087952A95E1F7782F7F5F8B2F90E0860F52
:10279000911D870F911D089714F4A8E004C0AB2F7A
:1027A000AF5FA60FA70F51E010E041E0FF2490E0DB
:1027B000892F8295807F8093ED00EEEEF0E01192FC
:1027C000E83FF105E1F79F5F9F3091F7EE24E0E0ED
:1027D000F0E0CC2490E8A92E8AE0982EBB24BA948D
:1027E00081E0F81609F043C0F092D80031968D2DA3
:1027F0008150880F8093E200272F269530E02150EA
:10280000304005E0220F331F0A95E1F78B2F90E04F
:102810000197880F991F282B2093E300272F30E082
:102820002150304004E0220F331F0A95E1F7862F34
:1028300090E00197880F991F282B21602093E400D6
:10284000CF0123E0969587952A95E1F78093E500DF
:102850001092ED001092EE00A092EF009092D8003E
:102860008091D90082FFFCCFB092DA00EE2401E023
:102870003AC08091EE0090E085FF10C08091EF009B
:102880008F738093EF001092D8008091D90082FD61
:10289000FCCF00E010E0CC24C39481C08F71907015
:1028A000892B11F010E041E08091DA00282F30E010
:1028B00085FF11C0EE2041F48091DA0080628093A0
:1028C000DA00EE24E39407C08091DA0080628093FE
:1028D000DA0010E041E02F703070232B21F010E07F
:1028E000FF24F39403C0113021F256C051116F5FE1
:1028F0006930F8F07830E8F0A93111F0AF5F05C029
:1029000080E4D81621F0D394A8E062E014C080914E
:10291000EF008F738093EF001092D8008091D90060
:1029200082FDFCCFA8E062E072E050E000E0CC2441
:1029300036C0663010F4762F0AC0262F30E0872F7D
:1029400090E001968217930714F47F5F672FB72FEB
:10295000B60FB095BA0F8B2F8150883040F6472FB5
:1029600050E0262F30E02F5F3F4F2B0F311DCA0163
:10297000880F991F880F991F821793070CF4B7CF00
:10298000CA01880F991F840F951F281739070CF467
:10299000AECF51E011E003C0413009F4A7CF40E0D1
:1029A000013009F41DCF8C2D1F910F91FF90EF90F6
:1029B000DF90CF90BF90AF909F90089581E080937B
:1029C000D80082E08093E20084E08093E30083E11A
:1029D0008093E40081E008958091D803882331F446
:1029E0008091C000881F8827881F08958091C800A3
:1029F000881F8827881F0895982F2091D8032223A5
:102A000029F48091C00085FD06C0FBCF8091C800ED
:102A100085FD06C0F4CF9093C6008091C60004C027
:102A20009093CE008091CE00892F08959091D80385
:102A3000992329F48091C00087FD06C0FBCF8091C7
:102A4000C80087FD04C0F4CF8091C600089580912E
:102A5000CE000895FC012091D80316C031962223A0
:102A600029F48091C00085FD06C0FBCF8091C8008D
:102A700085FD06C0F4CF9093C6008091C60004C0C7
:102A80009093CE008091CE009081992339F70895DC
:102A90002F923F924F925F926F927F928F929F926E
:102AA000AF92BF92CF92DF92EF92FF920F931F935C
:102AB000DF93CF93CDB7DEB72E970FB6F894DEBF76
:102AC0000FBECDBF85E2A82EB12CAC0EBD1E8BA1D2
:102AD0009CA19C01F9010BE0802E90E080E01E019A
:102AE0000894211C311C9E01245F3F4F3E872D8797
:102AF0001CE6412E06C3253211F0813019F53F0145
:102B00000894611C711C2181243609F4EDC025361E
:102B100048F4283509F4CDC1233669F1203309F092
:102B2000B7C22FC2233709F46EC0243720F42C36E5
:102B300009F0AEC2B9C0253709F45CC1283709F0E5
:102B4000A7C2B7C19091D803992329F48091C000FE
:102B500085FD06C0FBCF8091C80085FD06C0F4CF7F
:102B60002093C6008091C60004C02093CE008091BF
:102B7000CE008501C2C22091D803913049F52223AD
:102B800029F48091C00085FD06C0FBCF8091C8006C
:102B900085FD06C0F4CF4092C6008091C60004C0F7
:102BA0004092CE008091CE00222329F48091C00073
:102BB00085FD06C0FBCF8091C80085FD05C0F4CF20
:102BC00033E63093C6008EC283E68093CE008FC278
:102BD00085010E5F1F4FD5019C91222329F480911E
:102BE000C00085FD06C0FBCF8091C80085FD06C0F2
:102BF000F4CF9093C6008091C60059C19093CE0047
:102C00008091CE0054C12091D803913049F5222300
:102C100029F48091C00085FD06C0FBCF8091C800DB
:102C200085FD06C0F4CF4092C6008091C60004C066
:102C30004092CE008091CE00222329F48091C000E2
:102C400085FD06C0FBCF8091C80085FD05C0F4CF8F
:102C5000B3E7B093C60046C2E3E7E093CE0047C2B5
:102C6000D501ED91FC9116C0222329F48091C0007A
:102C700085FD06C0FBCF8091C80085FD06C0F4CF5E
:102C80009093C6008091C60004C09093CE008091BE
:102C9000CE0031969081992339F785010E5F1F4F41
:102CA000F301BBE08B2E2AC2913019F091E081E054
:102CB00019C09091D803992329F48091C00085FD13
:102CC00006C0FBCF8091C80085FD06C0F4CF4092BE
:102CD000C6008091C60004C04092CE008091CE0014
:102CE00090E080E085010BC2F101B0E3B1932D8546
:102CF0003E85E217F307C9F71C869923C9F1D50170
:102D0000CD90DD90ED90FC90F7FC02C055240AC0F8
:102D1000F094E094D094C094C11CD11CE11CF11C2F
:102D200055245394AAE09A2E8101090D111DC70163
:102D3000B6012AE030E040E050E00E94AA21605D48
:102D4000F8016083C701B6012AE030E040E050E0BE
:102D50000E94AA21C901DA016C017D019A94C11473
:102D6000D104E104F10401F785010C5F1F4F25C078
:102D7000D5012D913C9137FD02C0552405C03095F9
:102D800021953F4F55245394FAE09F2EF101E90D10
:102D9000F11DC9016AE070E00E947521805D8083A9
:102DA000C9016AE070E00E9475219B019A94611547
:102DB000710561F785010E5F1F4F552009F46CC046
:102DC0009091D803992329F48091C00085FD06C015
:102DD000FBCF8091C80085FD07C0F4CFBDE2B09362
:102DE000C6008091C60058C0EDE2E093CE0080910D
:102DF000CE0052C0F10130E33193AD85BE85EA17B4
:102E0000FB07C9F71C86992359F1F501C080D180D1
:102E1000E280F380EAE09E2E8101090D111DC701B9
:102E2000B6012AE030E040E050E00E948821605D79
:102E3000D8016C93C701B6012AE030E040E050E0D1
:102E40000E948821C901DA016C017D019A94C114A4
:102E5000D104E104F10401F785010C5F1F4F1CC090
:102E6000F501208131817AE0972EF101E90DF11D04
:102E7000C9016AE070E00E946121805D80839A94BC
:102E8000C9016AE070E00E9461219B016115710532
:102E900061F785010E5F1F4F892D8F5F881608F43B
:102EA000882D9101280F311DC9010E942A15F301B7
:102EB00022C1F10130E33193AD85BE85EA17FB07EE
:102EC000C9F71C86992369F1F5012081318142817E
:102ED00053817AE01DC0922F9F709A3018F4892F89
:102EE000805D0AC0D3018C91883711F061E401C084
:102EF00061E6892F8A50860FF101E70FF11D80836B
:102F000064E056954795379527956A95D1F77150A6
:102F10002115310541055105F1F685010C5F1F4F63
:102F200026C0F501208131817AE01BC0922F9F706D
:102F30009A3018F4892F805D0AC0D3018C918837AC
:102F400011F041E401C041E6892F8A50840FF1015C
:102F5000E70FF11D808344E0369527954A95E1F708
:102F600071502115310511F785010E5F1F4F872F15
:102F70008F5F881608F4882DF101E80FF11DCF014D
:102F800094CF913049F59091D803992329F48091F9
:102F9000C00085FD06C0FBCF8091C80085FD06C03E
:102FA000F4CF4092C6008091C60004C04092CE008B
:102FB0008091CE00992329F48091C00085FD06C040
:102FC000FBCF8091C80085FD05C0F4CFF0E3F093FE
:102FD000C60088C020E389C0F3013196D301119661
:102FE0009C91892F80538A3020F59F70AF014F5FED
:102FF0005F4F2181822F80538A3030F42F70929559
:10300000907F922B4F5F5F4F892F82958F70BAE030
:103010008B9F802D11249F70890F8C3008F08BE0DE
:103020009BE0892E881AFA013297850190E081E0B1
:1030300066C02091D803222329F48091C00085FD29
:1030400006C0FBCF8091C80085FD07C0F4CF30E3F8
:103050003093C6008091C60005C080E38093CE0007
:103060008091CE00222329F48091C00085FD06C006
:10307000FBCF8091C80085FD06C0F4CF9093C600B9
:103080008091C60037C09093CE008091CE0032C0B0
:10309000913091F49091D803992329F48091C00044
:1030A00085FD06C0FBCF8091C80085FD08C0F4CF28
:1030B0004092C6008091C6009091D80305C040920E
:1030C000CE008091CE00F8CF992329F48091C000E2
:1030D00085FD06C0FBCF8091C80085FD06C0F4CFFA
:1030E0002093C6008091C60004C02093CE0080913A
:1030F000CE00F30185018BE0882E90E080E03196D0
:1031000058012081222309F0F6CC80E02E960FB6DC
:10311000F894DEBF0FBECDBFCF91DF911F910F910D
:10312000FF90EF90DF90CF90BF90AF909F908F90E7
:103130007F906F905F904F903F902F9008951F93D6
:10314000182F8091D803882389F41092C1008091B0
:10315000C6008093C20080E48093C00086E0809324
:10316000C2001092C5001092C40010C01092C90095
:103170008091CE008093CA0080E48093C80086E0EE
:103180008093CA001092CD001092CC00CB01BA01FE
:103190000E942119882309F452C08091D803912FED
:1031A0009470412F4873212F30E0882321F58091BE
:1031B000C00080628093C0008091C1008B7F8093AB
:1031C000C1008091C100982B9093C1004093C20030
:1031D0008091C20023703070220F331F822B8093A6
:1031E000C2008091C2008091C10088618093C100BB
:1031F0008091C10023C08091C80080628093C80084
:103200008091C9008B7F8093C9008091C900982B61
:103210009093C9004093CA008091CA002370307017
:10322000220F331F822B8093CA008091CA008091A5
:10323000C90088618093C9008091C90081E01F9115
:103240000895EF92FF920F931F93CF93DF939B010B
:10325000AC016115710581059105B1F063E0220FA4
:10326000331F441F551F6A95D1F760E078E488EE5C
:1032700091E00E9488212F5F3F4F4F4F5F4F56953F
:10328000479537952795FBC16091D803662339F49C
:103290006898709A8EB16998719A8EB106C05298EA
:1032A0005A9A8BB153985B9A8BB17091D903713054
:1032B000D9F4109281001092800010928200109236
:1032C000850010928400109289001092880010925C
:1032D0008B0010928A0010928D0010928C00109238
:1032E0008700109286001AC01092910010929000F0
:1032F00010929200109295001092940010929900F2
:103300001092980010929B0010929A0010929D00CB
:1033100010929C001092970010929600662339F448
:103320002CB18CB19CB12823217029230EC06130AF
:10333000A9F789B129B199B12823292330E0247054
:1033400030703595279535952795222339F36623D7
:1033500019F48CB181700AC0613051F489B190E0E8
:10336000847090709595879595958795882379F7C2
:10337000713049F480918100887F81608093810061
:103380008091810008C080919100887F8160809346
:10339000910080919100662339F42CB18CB19CB1DD
:1033A0002823217029230EC06130A9F789B129B1E2
:1033B00099B12823292330E0247030703595279562
:1033C00035952795222339F3662319F48CB1817042
:1033D0000AC0613051F489B190E084709070959585
:1033E000879595958795882379F7713029F4909181
:1033F00084008091850004C0909194008091950094
:10340000382F20E0092F10E0022B132B662339F40C
:103410002CB18CB19CB12823217029230EC06130BE
:10342000A9F789B129B199B12823292330E0247063
:1034300030703595279535952795222339F36623E6
:1034400019F48CB181700AC0613051F489B190E0F7
:10345000847090709595879595958795882379F7D1
:10346000713029F4E09084008091850004C0E090E0
:10347000940080919500582F40E0662339F42CB1D8
:103480008CB19CB12823217029230EC06130A9F78B
:1034900089B129B199B12823292330E024703070F3
:1034A0003595279535952795222339F3662319F409
:1034B0008CB181700AC0613051F489B190E08470A0
:1034C00090709595879595958795882379F77130B4
:1034D00029F4F09084008091850004C0F09094005D
:1034E00080919500B82FA0E0662339F42CB18CB1FF
:1034F0009CB12823217029230EC06130A9F789B11E
:1035000029B199B12823292330E0247030703595F2
:10351000279535952795222339F3662319F48CB125
:1035200081700AC0613051F489B190E0847090706C
:103530009595879595958795882379F7713029F426
:10354000909184008091850004C0909194008091B6
:103550009500382F20E0C92FD0E0C22BD32B662353
:1035600019F48CB181700AC06130C9F789B190E05B
:10357000847090709595879595958795882379F3B4
:10358000713071F49091840080918500382F20E093
:1035900080918100887F80938100809181000DC09F
:1035A0009091940080919500382F20E080919100B7
:1035B000887F8093910080919100662339F4689808
:1035C00070988EB1699871988EB106C052985A98C9
:1035D0008BB153985B988BB1892F90E0822B932B02
:1035E0008C1B9D0B9C01220F331F969587959695FA
:1035F0008795FC01E20FF31FE017F10708F45CC0A8
:10360000B901681B790BCB010617170708F454C0E2
:103610006E2D70E0642B752B9B01201B310BE21784
:10362000F30708F449C02817390708F445C04F2D9F
:1036300050E04A2B5B2BDA01A61BB70BBD01EA1742
:10364000FB07D0F1A817B907B8F1DE01A41BB50B31
:10365000EA17FB0788F1A817B90770F1200F311F8F
:10366000260F371F2A0F3B1F220F331F96E0369578
:1036700027959A95E1F72F5F3F4F36952795215073
:1036800030408091D803882351F43093C5002093B3
:10369000C4008091C00082608093C0000BC0813064
:1036A00049F43093CD002093CC008091C800826013
:1036B0008093C80081E001C080E0DF91CF911F912D
:1036C0000F91FF90EF9008958091D803882339F4EB
:1036D0002CB18CB19CB128232170292310C08130DA
:1036E00011F020E00CC089B129B199B12823292318
:1036F00030E0247030703595279535952795822FC9
:1037000008958091D803882319F48CB181700895AD
:10371000813011F080E0089589B190E0847090705C
:1037200095958795959587950895FB01DC01019006
:103730000D920020E1F70895AEE0B0E0E2EAFBE18F
:103740000C94D3210D891E8986E08C831A8309830A
:103750008FEF9FE79E838D839E01275E3F4FCE01B3
:1037600001966F89788DA9010E94C01B2F81388531
:10377000020F131FF80110822E96E4E00C94EF2143
:10378000ABE0B0E0E6ECFBE10C94C5213C012B0181
:103790005A01FC0117821682838181FD03C06FEFFD
:1037A0007FEFC6C19AE0892E1E010894211C311CAE
:1037B000F3012381F20123FD859123FF81912F01E4
:1037C000882309F4B2C1853239F423FD859123FFA2
:1037D00081912F01853229F490E0B3010E94B31D3D
:1037E000E7CF982FFF24EE249924FFE1FF15D0F0B6
:1037F0009B3269F09C3228F4903259F0933291F464
:103800000EC09D3249F0903369F441E024C052E08B
:10381000F52A84E0F82A28C098E0F92A25C0E0E1DA
:10382000FE2A22C0F7FC29C0892F80538A3070F409
:10383000F6FE05C0989C902C1124980E15C0E89CAB
:10384000E02C1124E80EF0E2FF2A0EC09E3229F48B
:10385000F6FC6BC140E4F42A07C09C3619F450E82A
:10386000F52A02C0983649F4F20123FD959123FF11
:1038700091912F01992309F0B8CF892F8554833076
:1038800018F08052833038F444E050E0A40EB51EA6
:103890005FE359830FC0933631F0933779F0933556
:1038A00009F056C020C0F5018081898342E050E0D4
:1038B000A40EB51E610101E010E012C0F501C08048
:1038C000D180F6FC03C06FEF7FEF02C0692D70E07E
:1038D00042E050E0A40EB51EC6010E94A81D8C0156
:1038E0005FE7F52214C0F501C080D180F6FC03C06B
:1038F0006FEF7FEF02C0692D70E042E050E0A40E50
:10390000B51EC6010E949D1D8C0150E8F52AF3FEEC
:1039100007C01AC080E290E0B3010E94B31DEA9490
:103920008E2D90E008171907A8F30EC0F601F7FCDA
:103930008591F7FE81916F0190E0B3010E94B31D64
:10394000E110EA94015010400115110579F7EAC021
:10395000943611F0993669F5F7FE08C0F50120811B
:1039600031814281538184E090E00AC0F501808179
:1039700091819C01442737FD4095542F82E090E0CF
:10398000A80EB91E9FE6F92257FF09C05095409531
:10399000309521953F4F4F4F5F4FE0E8FE2ACA0117
:1039A000B901A1012AE030E00E94DF1DD82ED21813
:1039B00040C0953729F41F2D1F7E2AE030E01DC03E
:1039C0001F2D197F9F3661F0903720F4983509F04C
:1039D000ACC00FC0903739F0983709F0A6C004C0CA
:1039E00028E030E00AC0106114FD146020E130E0EE
:1039F00004C014FD166020E132E017FF08C0F50195
:103A0000608171818281938144E050E008C0F501BA
:103A100080819181BC0180E090E042E050E0A40E02
:103A2000B51EA1010E94DF1DD82ED2188FE7F82EF7
:103A3000F122F6FE0BC05EEFF522D91438F4F4FE45
:103A400007C0F2FC05C08FEEF82202C01D2D01C098
:103A5000192DF4FE0DC0FE01ED0DF11D80818033A6
:103A600019F499EEF92208C01F5FF2FE05C003C0E9
:103A70008F2D867809F01F5F0F2DF3FC14C0F0FE28
:103A80000FC01E1510F09D2C0BC09D2C9E0C911A82
:103A90001E2D06C080E290E0B3010E94B31D1F5F9F
:103AA0001E15C0F304C01E1510F4E11A01C0EE2467
:103AB00004FF0FC080E390E0B3010E94B31D02FF3A
:103AC0001DC001FD03C088E790E00EC088E590E0CE
:103AD0000BC0802F867891F001FF02C08BE201C0FD
:103AE00080E2F7FC8DE290E0B3010E94B31D06C0B6
:103AF00080E390E0B3010E94B31D9A94D914C0F3FF
:103B0000DA94F101ED0DF11D808190E0B3010E9486
:103B1000B31DDD20A9F706C080E290E0B3010E944A
:103B2000B31DEA94EE20C1F743CEF301668177819D
:103B3000CB012B96E2E10C94E121FC010590615050
:103B400070400110D8F7809590958E0F9F1F0895B3
:103B5000FC016150704001900110D8F7809590955C
:103B60008E0F9F1F08950F931F93CF93DF938C01A8
:103B7000EB018B8181FF1BC082FF0DC02E813F8135
:103B80008C819D812817390764F4E881F9810193BC
:103B9000F983E88306C0E885F985802F0995892B8C
:103BA00031F48E819F8101969F838E8302C00FEF37
:103BB0001FEFC801DF91CF911F910F910895FA0176
:103BC000AA27283051F1203181F1E8946F936E7F5C
:103BD0006E5F7F4F8F4F9F4FAF4FB1E03ED0B4E04D
:103BE0003CD0670F781F891F9A1FA11D680F791F8E
:103BF0008A1F911DA11D6A0F711D811D911DA11D9F
:103C000020D009F468943F912AE0269F11243019AE
:103C1000305D3193DEF6CF010895462F4770405D49
:103C20004193B3E00FD0C9F7F6CF462F4F70405DF8
:103C30004A3318F0495D31FD4052419302D0A9F753
:103C4000EACFB4E0A6959795879577956795BA954D
:103C5000C9F700976105710508959B01AC010A2E13
:103C600006945795479537952795BA95C9F7620FEA
:103C7000731F841F951FA01D08959F939F774DD19B
:103C80000F9000203AF49058A2EA2AED3FE049E470
:103C900050E413D0EEC15058BB27AA270ED0E9C17B
:103CA000A9D130F0AED120F031F49F3F11F41EF4D1
:103CB00079C10EF4E095E7FB6FC1E92FFCD180F3E9
:103CC000BA17620773078407950718F071F49EF519
:103CD00014C20EF4E0950B2EBA2FA02D0B01B901E2
:103CE00090010C01CA01A0011124FF27591B99F072
:103CF000593F50F4503E68F11A16F040A22F232F7E
:103D0000342F4427585FF3CF469537952795A795CD
:103D1000F0405395C9F77EF41F16BA0B620B730B74
:103D2000840BBAF09150A1F0FF0FBB1F661F771FE5
:103D3000881FC2F70EC0BA0F621F731F841F48F49A
:103D4000879577956795B795F7959E3F08F0B3CF20
:103D50009395880F08F09927EE0F9795879508950A
:103D6000F7D008F481E0089554D1E39593C10CD0C5
:103D700080C147D140F03ED130F021F45F3F19F0CF
:103D80000BC15111BBC10EC196D198F39923C9F350
:103D90005523B1F3951B550BBB27AA276217730751
:103DA000840738F09F5F5F4F220F331F441FAA1F05
:103DB000A9F333D00E2E3AF0E0E830D091505040C5
:103DC000E695001CCAF729D0FE2F27D0660F771F73
:103DD000881FBB1F261737074807AB07B0E809F055
:103DE000BB0B802DBF01FF2793585F4F2AF09E3FEA
:103DF000510568F0D1C082C15F3FECF3983EDCF31F
:103E0000869577956795B795F7959F5FC9F7880F62
:103E1000911D9695879597F90895E1E0660F771FB4
:103E2000881FBB1F621773078407BA0720F0621B45
:103E3000730B840BBA0BEE1F88F7E095089504D03E
:103E40006894B1115BC108953ED188F09F5790F0FE
:103E5000B92F9927B751A0F0D1F0660F771F881FAF
:103E6000991F1AF0BA95C9F712C0B13081F045D147
:103E7000B1E0089542C1672F782F8827B85F39F0E5
:103E8000B93FCCF3869577956795B395D9F73EF40E
:103E900090958095709561957F4F8F4F9F4F0895B6
:103EA000E89409C097FB3EF49095809570956195D4
:103EB0007F4F8F4F9F4F9923A9F0F92F96E9BB278A
:103EC0009395F695879577956795B795F111F8CF06
:103ED000FAF4BB0F11F460FF1BC06F5F7F4F8F4F71
:103EE0009F4F16C0882311F096E911C0772321F067
:103EF0009EE8872F762F05C0662371F096E8862FFF
:103F000070E060E02AF09A95660F771F881FDAF755
:103F1000880F9695879597F90895DF93CF931F9310
:103F20000F938B01EC01E4E9F0E03FD0A2D09801BF
:103F3000AE018B01EC0160E070E080E89FE3ABDE56
:103F40004ED19801AE010F911F91CF91DF91ECC03E
:103F5000990F0008550FAA0BE0E8FEEF161617069A
:103F6000E807F907C0F012161306E407F50798F002
:103F7000621B730B840B950B39F40A2661F0232B1B
:103F8000242B252B21F408950A2609F4A140A69597
:103F90008FEF811D811D089597F99F6780E870E07C
:103FA00060E008959FEF80EC0895DF93CF931F9317
:103FB0000F93FF92EF92DF927B018C01689405C012
:103FC000DA2EEF01B1D0FE01E894A591259135914B
:103FD00045915591AEF3EF0170DEFE019701A80106
:103FE000DA9479F7DF90EF90FF900F911F91CF91C6
:103FF000DF91089500240A9416161706180609067C
:10400000089500240A94121613061406050608954E
:10401000C9CF59D0E8F3E894EFEFBB273FE048EC75
:104020005FE76B3D73078407950708F1FF279F57EC
:10403000B25A6A4D7F40894CF04032F4BE55654219
:10404000704F8643FF4F0894EE1F915030F0BB0F26
:10405000661F771F881FFF1FEBCF9EE7882332F074
:10406000BB0F661F771F881F9A95C1F79395E09540
:1040700000C1092E0394000C11F4882352F0BB0FE9
:1040800040F4BF2B11F460FF04C06F5F7F4F8F4F70
:104090009F4F0895EF93E0FF06C0A2EA2AED3FE0AC
:1040A00049EC5FEB0ADEE5DF0F90039401FC9058CA
:1040B000ECEBF0E0F5C057FD9058440F551F59F058
:1040C0005F3F71F04795880F97FB991F61F09F3F05
:1040D00079F087950895121613061406551FF2CF2E
:1040E0004695F1DF08C0161617061806991FF1CF7E
:1040F00086957105610508940895E894BB276627A5
:104100007727CB0197F9089523DF08F48FEF0895FF
:104110000BD0AFCF6FDF28F074DF18F0952309F0D4
:104120003BCF40CF1124EACFC6DFA0F3959FD1F358
:10413000950F50E0551F629FF001729FBB27F00D55
:10414000B11D639FAA27F00DB11DAA1F649F6627AA
:10415000B00DA11D661F829F2227B00DA11D621FF9
:10416000739FB00DA11D621F839FA00D611D221FB3
:10417000749F3327A00D611D231F849F600D211D97
:10418000822F762F6A2F11249F5750408AF0E1F03A
:1041900088234AF0EE0FFF1FBB1F661F771F881F83
:1041A00091505040A9F79E3F510570F0F5CEA6CF33
:1041B0005F3FECF3983EDCF3869577956795B7956E
:1041C000F795E7959F5FC1F7FE2B880F911D969598
:1041D000879597F9089511F40EF4E4CE4AC073DF81
:1041E000D0F39923D9F3CEF39F57550B87FF51D0C6
:1041F00056959795B0E020F4660F771F881FBB1F78
:104200001F930F9300249001A0018001F001A0E80A
:104210000E0F1F1F0A1E511D601B710B8009B50B6D
:1042200048F4600F711F801DB51F0E1B1F0B0A0A7B
:10423000510907C02E0F3F1F4A1F0E0F1F1F0A1ED6
:10424000511D660F771F881FBB1FA695F795E79531
:10425000F8F60617170708065B07211D311D411DDB
:104260000F911F91B901842F9158880F96958795CA
:1042700008959F3F49F0915028F48695779567956A
:10428000B7959F5F80389F4F880F9695879597F9D0
:10429000089591505040660F771F881FD2F70895F8
:1042A0009F938F937F936F93FF93EF939B01AC0149
:1042B0002FDFEF91FF9179DE2F913F914F915F9129
:1042C00027CFAA1BBB1B51E107C0AA1FBB1FA61704
:1042D000B70710F0A61BB70B881F991F5A95A9F7AF
:1042E00080959095BC01CD01089597FB092E072676
:1042F0000AD077FD04D0E5DF06D000201AF47095CF
:1043000061957F4F0895F6F7909581959F4F089599
:10431000A1E21A2EAA1BBB1BFD010DC0AA1FBB1FC9
:10432000EE1FFF1FA217B307E407F50720F0A21B3B
:10433000B30BE40BF50B661F771F881F991F1A94A8
:1043400069F760957095809590959B01AC01BD01D2
:10435000CF01089597FB092E05260ED057FD04D0F6
:10436000D7DF0AD0001C38F4509540953095219540
:104370003F4F4F4F5F4F0895F6F79095809570959A
:1043800061957F4F8F4F9F4F08952F923F924F928D
:104390005F926F927F928F929F92AF92BF92CF92D5
:1043A000DF92EF92FF920F931F93CF93DF93CDB7DE
:1043B000DEB7CA1BDB0B0FB6F894DEBF0FBECDBF56
:1043C00009942A88398848885F846E847D848C8427
:1043D0009B84AA84B984C884DF80EE80FD800C8130
:1043E0001B81AA81B981CE0FD11D0FB6F894DEBF13
:0C43F0000FBECDBFED010895F894FFCF83
:1043FC002D2D2D20547843414E204020253032580D
:10440C003A2030782530386C58284578742E292C71
:10441C00204C3D25642C20002D302D20527843411A
:10442C004E20402025303258253032583A2020205A
:10443C00202020307825303358285374642E292CB2
:10444C00204C3D25642C200052656D6F74650D0A5F
:10445C0000253032582D00253032580D0A000A0D37
:10446C0053656E64696E673A0A0D0052656365693F
:10447C007665643A0A0D000D0A0A0A51756974745E
:10448C00696E672E2E2E00410A00420A00430A0074
:10449C000A0A0D496E697469616C697A696E6720E4
:1044AC0043414E6275733A0A0D00256325632563FB
:1044BC00256325632563256325630004000D0A200D
:1044CC00202020202020205F5F5F5F5F5F5F5F5FA9
:1044DC005F5F5F5F5F5F5F5F5F5F5F5F5F5F5F5FE0
:1044EC005F5F5F5F0D0A2020202020202F5F5F5F21
:1044FC002020205F5F5F5F5F5F5F5F5F5F5F5F5F7D
:10450C005F5F5F5F5F5F5F5F5F5F5F7C0D0A2020B7
:10451C002020205F5F5F20207C207C20205F5F5F5D
:10452C005F5F5F5F5F202020205F5F5F5F20202048
:10453C005F0D0A202020202F2020207C207C207C36
:10454C00207C20205F2020205F205C20207C2020ED
:10455C005F5F7C207C207C0D0A2020202F202F7C6C
:10456C00207C207C207C207C207C207C207C207C5F
:10457C00207C207C207C5F5F20207C207C0D0A200E
:10458C00202F202F207C207C207C207C207C207CD9
:10459C00207C207C207C207C207C20205F5F7C2069
:1045AC007C207C0D0A202F202F5F207C207C207CFF
:1045BC00207C207C207C207C207C207C207C207C0F
:1045CC00207C5F5F20207C207C5F5F0D0A2F5F5F6B
:1045DC005F5F7C7C5F7C207C5F7C207C5F7C207CB4
:1045EC005F7C207C5F7C207C5F5F5F5F7C207C5FDE
:1045FC005F5F2F0D0A2C2D2D2D2D2D2D2D2D2D2DBD
:10460C002D2D2D2D2D2D2D2D2D2D2D2D2D2D2D2DCE
:10461C002D2D2D2D2D2D2D2D2D2C0D0A7C20415485
:10462C00393043414E7878204C696272617279203E
:10463C0056657273696F6E20332E32302020202F16
:10464C00202852290D0A272D2D2D2D2D2D2D2D2DC8
:10465C002D2D2D2D2D2D2D2D2D2D2D2D2D2D2D2D7E
:10466C002D2D2D2D2D2D2D2D270D0A0A002D2D2D07
:10467C00204154393043414E7878204C6962726144
:10468C0072792056657273696F6E20332E3230202A
:06469C002D2D2D0D0A007A
:00000001FF
